:020000040800F2
:1000000000000820C9490008594900085B49000858
:100010005D4900085F4900086149000800000000D0
:100020000000000000000000000000009136000801
:1000300063490008000000003137000865490008E6
:10004000194A0008194A0008194A0008194A000804
:10005000194A0008194A0008194A0008194A0008F4
:10006000194A0008194A0008194A0008194A0008E4
:10007000194A0008194A0008194A0008194A0008D4
:10008000194A0008194A0008194A0008194A0008C4
:10009000194A0008194A0008194A0008194A0008B4
:1000A000194A0008194A0008194A0008194A0008A4
:1000B000194A0008194A0008194A0008194A000894
:1000C000194A0008194A0008194A0008194A000884
:1000D000194A0008194A0008194A0008194A000874
:1000E000194A0008194A0008194A0008194A000864
:1000F000194A0008194A0008194A0008194A000854
:10010000194A0008194A0008194A0008194A000843
:10011000194A0008194A0008194A0008194A000833
:10012000194A0008194A0008194A0008194A000823
:10013000194A0008194A0008194A0008194A000813
:10014000194A0008194A0008194A0008194A000803
:10015000194A0008194A0008194A0008194A0008F3
:10016000194A0008194A0008194A0008194A0008E3
:10017000194A0008194A0008194A0008000000003E
:10018000194A0008194A0008194A0008194A0008C3
:10019000194A0008194A0008194A0008194A0008B3
:1001A000194A0008194A0008194A0008194A0008A3
:1001B000194A0008194A0008194A0008194A000893
:1001C000194A0008194A000800000000194A0008EE
:1001D000194A0008194A0008194A0008194A000873
:1001E000194A0008194A0008194A0008194A000863
:0801F000194A0008194A000831
:1002000010B5054C237833B9044B13B10448AFF350
:1002100000800123237010BD7C000020000000003E
:10022000F859000808B5034B1BB103490348AFF365
:10023000008008BD0000000080000020F859000880
:10024000F0B400EB4003DFF8800000EBC30000F1E6
:1002500018063069F768756887422ED3B368DC1BCF
:10026000631E934212D37D19D01900BF11F8013BD0
:1002700005F8013B013A05D011F8013B05F8013BB7
:10028000013AF3D1F0600120F0BC7047C0189042F1
:1002900017D37819121B11F8013B00F8013B013C00
:1002A000F9D1141C05D011F8013B05F8013B013AC6
:1002B000F9D1F4600120F0BC7047C01B01389042B6
:1002C000D1D20020F0BC7047044E0020034613F842
:1002D000012B002AFBD1181A0138704700000000DA
:1002E00001F0FF01102A2BDB10F0070F08D010F8E7
:1002F000013B013A8B422DD010F0070F42B3F6D1EB
:10030000F0B441EA012141EA014122F007047FF003
:1003100000070023F0E80256083C85EA010586EA5A
:10032000010685FA47F5A3FA87F586FA47F6A5FA96
:1003300087F68EB9EED1F0BC01F0FF0102F00702A2
:1003400032B110F8013B013A83EA010313B1F8D14D
:100350000020704701387047002D06BF354603382E
:10036000073815F0010F07D1013015F4807F02BF67
:10037000013015F4C03F0130F0BC0138704700BFB8
:1003800053B94AB9002908BF00281CBF4FF0FF31FC
:100390004FF0FF3000F06AB9ADF1080C6DE904CE02
:1003A00000F006F8DDF804E0DDE9022304B0704750
:1003B0002DE9F047089D0C46002B4ED194468C4504
:1003C0008646B2FA82F262D94AB1C2F12003914064
:1003D00020FA03F30CFA02FC194300FA02FE4FEA7A
:1003E0001C471FFA8CF6B1FBF7F44FEA1E4307FBDC
:1003F000141143EA014304FB06F199420AD91CEBAC
:10040000030304F1FF3080F01281994240F20F8122
:10041000023C6344591A1FFA8EF3B1FBF7F007FB55
:10042000101143EA014300FB06F69E420AD91CEB79
:10043000030300F1FF3180F0FC809E4240F2F9801E
:10044000634402389B1B40EA044000211DB1D340A5
:100450000022C5E90032BDE8F0878B4205D90DB115
:10046000C5E9000100210846F5E7B3FA83F1002948
:1004700046D1A34202D39042C0F0F080861A64EBCA
:1004800003030120002DE6D0C5E90063E3E7002A5D
:1004900040F09080A1EB0C044FEA1C481FFA8CF747
:1004A0000121B4FBF8F64FEA1E4308FB164443EA69
:1004B000044307FB06F0984208D91CEB030306F13E
:1004C000FF3402D2984200F2CD8026461C1A1FFA51
:1004D0008EF3B4FBF8F008FB104443EA044300FB3E
:1004E00007F79F4208D91CEB030300F1FF3402D247
:1004F0009F4200F2B0802046DB1B40EA0640A5E7A1
:10050000C1F120068B4022FA06F71F4320FA06FCB1
:1005100004FA01F343EA0C03F44000FA01F8380C42
:100520004FEA1349B4FBF0FE1FFA87FC00FB1E44A0
:1005300049EA04440EFB0CF9A14502FA01F20AD97A
:100540003C190EF1FF3A80F08480A14540F2818091
:10055000AEF1020E3C44A4EB09041FFA83F9B4FB8C
:10056000F0F300FB134449EA044403FB0CFCA445EC
:1005700007D93C1903F1FF3067D2A44565D9023B86
:100580003C4443EA0E40A0FB0293A4EB0C049C42C3
:10059000CE469C4651D34ED055B1B8EB0E0364EB1A
:1005A0000C0404FA06F6CB401E43CC40C5E90064B7
:1005B000002150E7C2F1200320FA03F10CFA02FCFB
:1005C00024FA03F394400C434FEA1C4800FA02FE5D
:1005D0001FFA8CF7B3FBF8F008FB1031230C43EA49
:1005E000014300FB07F1994208D91CEB030300F11A
:1005F000FF362CD299422AD9023863445B1AA4B23E
:10060000B3FBF8F108FB113344EA034401FB07F3A1
:10061000A34208D91CEB040401F1FF3613D2A34214
:1006200011D902396444E41A41EA004139E7044629
:10063000F0E6084606E7C845AED2B9EB020E63EB1A
:10064000070C0138A8E73146EDE7034699E7304645
:10065000D4E7D6467FE7634402384DE70646234693
:1006600008460FE7023E634430E700BF704700BF13
:1006700001220248114600F02FBB00BF00040240D7
:1006800000220121014800F027BB00BF0004024006
:1006900001224FF48041014800F01EBB00040240DB
:1006A00000224FF48041014800F016BB00040240D4
:1006B00030B5B9B034220021022407A8042504F083
:1006C000F2FA1422002102A804F0EDFA002190228F
:1006D00014A804F0E8FA00F019FB224B07A81A6CE2
:1006E00042F080521A641B6C03F080530093009B0D
:1006F0001D4B1A6842F440421A6001221B68119493
:1007000003F440430193019B4FF4A023CDE9072359
:100710004FF48003CDE90D43D823CDE90F530923CE
:10072000CDE9123400F032FB00F0F8FA0F23072174
:1007300002A8CDE9023400244FF4A053CDE90443CC
:100740004FF48053069300F069FD084B14A83394CE
:1007500014934023CDE92654289300F055FE39B078
:1007600030BD00BF00380240007000408003200010
:100770002DE9F0418CB0434C00F0BEF8DFF8188151
:10078000FFF796FF1422002107A804F08CFA236BD0
:100790003D4E404643F0800300224FF48141002546
:1007A00023630127236B03F080030193019B236BD9
:1007B00043F001032363236B03F001030293029BC5
:1007C000236B43F002032363236B03F002030393C1
:1007D000039B236B43F004032363236B03F00403A5
:1007E0000493049B236B43F008032363236B03F000
:1007F00008030593059B236B43F040032363236B9E
:1008000003F040030693069B00F066FA3046002290
:10081000402100F061FA4FF400521C4B07A91C481C
:100820000995CDE9072300F0FBF844F2810307A9FD
:100830004046CDE90737CDE9095500F0F1F84023EE
:1008400007A93046CDE90737CDE9095500F0E8F8AA
:10085000802307A930460995CDE9073500F0E0F877
:10086000636B0C4A43F040036363636B03F0400324
:100870000793079B136843F0040313600CB0BDE8B3
:10088000F08100BF00380240001802400000111043
:100890000008024000080650000402400A460146D3
:1008A000024808B503F036FFFEE700BF105A000803
:1008B00038B50E4B05461A784FF47A73B3FBF2F352
:1008C0000B4A1068B0FBF3F000F096F8044658B9F4
:1008D0000F2D09D8024629464FF0FF3000F048F8A6
:1008E000044B20461D6038BD0120FCE710000020AD
:1008F0001C0000201400002008B5032000F01AF8A6
:100900000F20FFF7D5FF04F009F8002008BD000014
:10091000034A044B11681B780B441360704700BFF7
:100920009800002010000020014B1868704700BF9D
:1009300098000020C31E042B10B5044603D9922151
:100940000948FFF7ABFF09492302CA6803F4E063D3
:1009500022F4E0621204120C134343F0BF6343F429
:100960000033CB6010BD00BF525A000800ED00E01C
:100970000F2A70B505460C46164603D9AA211B4816
:10098000FFF78CFF0F2C03D9AB211848FFF786FF28
:10099000174BD968C1F30221C1F107030A1D042BCB
:1009A00028BF0423062A4FF0FF328CBF03390021F1
:1009B00002FA03F3002D02FA01F224EA030326EA05
:1009C000020603FA01F343EA06034FEA0313DBB21C
:1009D00006DB05F1604505F5614585F8003370BD1E
:1009E00005F00F05034A5355F9E700BF525A0008B6
:1009F00000ED00E014ED00E00138B0F1807F0BD293
:100A00004FF0E023054AF0215861002082F82310BE
:100A1000072298611A6170470120704700ED00E0DD
:100A2000A64B98422DE9F74F04460D462BD003F50F
:100A30008063984227D003F58063984223D003F562
:100A4000806398421FD003F5806398421BD003F562
:100A50008063984217D003F58063984213D003F562
:100A6000806398420FD003F5806398420BD003F562
:100A70008063984207D003F58063984203D0B12188
:100A80008F48FFF70BFF2B881BB9B2218C48FFF76B
:100A900005FF6B68012B16D98A4A934213D000F2E6
:100AA000F180A2F5801293420DD009D8032B0AD908
:100AB000113B012B07D9B3218148FFF7EFFE02E07C
:100AC000814A9342F7D1AB68022B03D9B4217C4809
:100AD000FFF7E4FE0026DFF8FC8101222B6802FA12
:100AE00006F707EA030937EA030340F0C4806B689E
:100AF00023F01003022B18D12B690F2B03D9C5212A
:100B00006F48FFF7CBFEF10806F007004FF00F0C1F
:100B100004EB810180000B6A0CFA00FC23EA0C0C48
:100B20002B69834043EA0C030B624FEA460B032315
:100B3000206803FA0BF320EA03006FEA030A6B68EC
:100B400003F0030123F0100301FA0BF1013B014311
:100B5000012B216017D8EB68032B03D9D921584802
:100B6000FFF79CFEA168EB680AEA010103FA0BF3A8
:100B70000B43A360636823EA07026B68C3F30013A7
:100B8000B34013436360E36869680AEA030AAB6829
:100B9000CF0003FA0BF343EA0A03E3606BD54B4B38
:100BA00006F003005A6C800042F480425A6426F03A
:100BB00003025B6C02F1804203F4804302F59C3235
:100BC0000193019B0F23D2F808C083402CEA030C49
:100BD0003A4B9C425FD003F580639C425DD003F5A5
:100BE00080639C425BD003F580639C4259D003F53F
:100BF00080639C4257D003F580639C4255D003F537
:100C000080639C4253D003F580639C4251D003F52E
:100C100080639C424FD003F580639C4214BF0A233B
:100C200009238340C80343EA0C0393606FEA090277
:100C3000D8F8003054BF134049EA03038F03C8F8C3
:100C40000030D8F8043054BF134049EA0303C80207
:100C5000C8F80430D8F8083054BF134049EA0303F9
:100C60008902C8F80830D8F80C3054BF134049EA5C
:100C70000303C8F80C300136102E7FF42EAF03B0FA
:100C8000BDE8F08F124A93423FF41DAF23F4801366
:100C9000A2F5702215E70023C3E70123C1E7022371
:100CA000BFE70323BDE70423BBE70523B9E706231A
:100CB000B7E70723B5E70823B3E700BF000002400A
:100CC000CC5A000800002110000012100038024029
:100CD00000003110003C014070B5054616460C4638
:100CE00021B94FF4CD710848FFF7D8FD012E06D980
:100CF00040F29B110448FFF7D1FDAC6170BD002E9E
:100D0000FBD12404F9E700BFCC5A0008024A13685B
:100D100043F480731360704700700040194B37B57F
:100D20001A6C194C42F080521A641B6C03F0805309
:100D30000193019B236843F480332360FFF7F4FDA4
:100D400005466368DA030CD523680F4D43F400337E
:100D50002360FFF7E9FD04466B689B030AD500207A
:100D600006E0FFF7E1FD401BB0F57A7FE9D90320EB
:100D700003B030BDFFF7D8FD001BB0F57A7FEBD98B
:100D8000F5E700BF00380240007000402DE9F34154
:100D9000044618B9012002B0BDE8F08103680F2BAA
:100DA00004D94FF4B2718148FFF778FD2368DB075F
:100DB00018D423689F0772D42368190700F1C880EC
:100DC00023685A0700F1F680A369022B04D940F288
:100DD0004B217648FFF762FDA269002A40F05D8151
:100DE0000020D8E7636833F4803207D0B3F5A02F32
:100DF00004D04FF4B5716D48FFF750FD6C4B9A6805
:100E000002F00C02042A07D09A6802F00C02082AA9
:100E10000AD15B685E0207D5654B1B689D03C8D588
:100E20006368002BC5D1B5E76368614DB3F5803FBA
:100E300011D12B6843F480332B60FFF775FD5C4EB6
:100E4000054633689803B4D4FFF76EFD401B642851
:100E5000F7D903209FE79BB92B6823F480332B60DD
:100E60002B6823F480232B60FFF75EFD06462B687A
:100E700099039ED5FFF758FD801B6428F7D9E8E752
:100E8000B3F5A02F2B6803D143F480232B60D0E768
:100E900023F480332B602B6823F48023CCE7E368B2
:100EA000012B04D94FF4CE714048FFF7F7FC2369BA
:100EB0001F2B04D940F29D113C48FFF7EFFC3C4B3F
:100EC0009A6812F00C0F07D09A6802F00C02082AF8
:100ED00012D15B685A020FD4354A13689B0703D5B9
:100EE000E368012B7FF456AF1368216923F0F80300
:100EF00043EAC10313605FE7E3682D4DBBB12B6884
:100F000043F001032B60FFF70FFD06462B689F0798
:100F100007D52B68226923F0F80343EAC2032B604C
:100F20004AE7FFF701FD801B0228EFD991E72B6804
:100F300023F001032B60FFF7F7FC06462B689807A8
:100F40007FF53AAFFFF7F0FC801B0228F6D980E767
:100F50006369012B04D940F2DD111448FFF79EFCB0
:100F60006369134D83B16B6F43F001036B67FFF748
:100F7000DBFC06466B6F9B073FF522AFFFF7D4FC07
:100F8000801B0228F6D964E76B6F23F001036B67BF
:100F9000FFF7CAFC06466B6F9F077FF511AFFFF79F
:100FA000C3FC801B0228F6D953E700BF445B00084E
:100FB00000380240A368012B06D9052B04D040F26B
:100FC00007217C48FFF76AFC7B4B1A6CD50027D4BD
:100FD0001A6C012742F080521A641B6C03F0805394
:100FE0000193019B754D2B68D8051BD5A368724DE5
:100FF000012B27D12B6F43F001032B6741F2883877
:10100000FFF792FC6C4E0546336F9A073FD5002FD1
:101010003FF4DAAE684A136C23F080531364D3E6CE
:101020000027DFE72B6843F480732B60FFF77CFC1D
:1010300006462B68D905D9D4FFF776FC801B6428B7
:10104000F7D906E7ABB92B6F41F2883823F00103DB
:101050002B672B6F23F004032B67FFF765FC064615
:101060002B6F9B07D3D5FFF75FFC801B4045F7D95B
:10107000EFE6052B2B6F03D143F004032B67B9E791
:1010800023F001032B672B6F23F00403B5E7FFF771
:101090004BFC401B4045B7D9DBE6474DAB6803F03E
:1010A0000C03082B3FF476AE022A71D1E36933F4C6
:1010B000800304D04FF415713E48FFF7EFFB236A1D
:1010C000023B3D2B04D940F255213A48FFF7E6FB9D
:1010D000636A323BB3F5BF7F04D940F256213548ED
:1010E000FFF7DCFBA26A022A0BD0082A04D84FF4CF
:1010F000A873D340D80704D440F257212D48FFF7F6
:10110000CDFBE36A023B0D2B04D94FF4167129483D
:10111000FFF7C4FB236B023B052B04D940F25A2195
:101120002448FFF7BBFB244D2B6823F080732B6012
:10113000FFF7FAFB06462B68990123D4D4E907325E
:101140001343626A43EA8213E26A43EA0263226B50
:1011500043EA0273A26A5208013A43EA02436B600F
:101160002B6843F080732B60FFF7DEFB124D0446C3
:101170002B689A013FF534AEFFF7D6FB001B02281F
:10118000F6D966E6FFF7D0FB801B0228D3D960E6CC
:101190002B6823F080732B60FFF7C6FB04462B6897
:1011A0009B017FF51DAEFFF7BFFB001B0228F6D9A0
:1011B0004FE600BF445B000800380240007000406A
:1011C000134908B58B6803F00C03042B1BD0082BC4
:1011D0001BD14A684B68496802F03F0213F4800350
:1011E000C1F388111ABF0B4800230B48A1FB000173
:1011F000FFF7C6F8064B5B68C3F3014301335B009E
:10120000B0FBF3F008BD0348FCE70348FAE700BF72
:101210000038024000127A000024F4002DE9F04169
:101220000D46044610B90120BDE8F0810368013B7A
:101230000E2B04D940F2CA216E48FFF72FFB0F2D69
:1012400004D940F2CB216B48FFF728FB6A4A1368A8
:1012500003F00F03AB423CD32268960744D42368C3
:10126000D9076ED4644A136803F00F03AB4200F24F
:101270009B8023685A0700F1A38023681B0718D5B9
:10128000236933F480520CD023F40062B2F5A05FDE
:1012900007D0B3F5C05F04D040F23A315548FFF7AC
:1012A000FDFA564A2169936823F4604343EAC10377
:1012B0009360FFF785FF514B514A9B68C3F30313BB
:1012C000D35CD8404F4B18600F20FFF7F1FA002095
:1012D000AAE7136823F00F032B431360136803F08E
:1012E0000F03AB429FD1B7E712F0040F434B03D07B
:1012F000996841F4E0519960100703D59A6842F467
:1013000060429A60A36833F0800212D023F020027A
:10131000902A0ED023F04002A02A0AD023F0100217
:10132000C02A06D0F02B04D040F2EF213148FFF75D
:10133000B5FA324AA168936823F0F0030B43936037
:101340008DE76368022B04D940F2F6212948FFF7A4
:10135000A5FA6168294B01291A681DD112F4003FD2
:101360003FF461AF9A6841F28838244F22F00302BB
:101370000A439A60FFF7D8FA0646BB68626803F032
:101380000C03B3EB820F3FF46DAFFFF7CDFA801B78
:101390004045F2D9032047E7022902D112F0007F2D
:1013A000DEE712F0020FDBE7136823F00F032B4395
:1013B0001360136803F00F03AB427FF434AF58E7B8
:1013C000E36833F480520CD023F40062B2F5A05FDE
:1013D00007D0B3F5C05F04D040F233310548FFF7C2
:1013E0005DFA064AE168936823F4E0530B43936087
:1013F00043E700BF445B0008003C02400038024065
:10140000F45C00081C000020036823F0624323F012
:1014100006032DE9F74304461BB97421A648FFF7DC
:101420003DFA266816F0010613D0636B33F400030F
:1014300003D07A21A048FFF731FAA04B9A6822F432
:1014400000029A60666B9A683243B6FA86F67609AD
:101450009A60256815F400251AD0E36B33F4401325
:1014600003D08A219448FFF719FA944AE56BD2F821
:101470008C30B5F5801F23F4401308BF012643EAE2
:10148000050316BFB5FA85F500256D09C2F88C3045
:101490002368D90218D5236C33F4400303D09E216E
:1014A0008548FFF7FBF98549226CD1F88C30B2F5FD
:1014B000800F23F4400343EA0203C1F88C3000F0AC
:1014C000FF82002A08BF0125236813F0807F18BF20
:1014D00001269A0664D5236BB3F5807F2DD0B3F532
:1014E000007F2AD023F4A021754A914225D023F40D
:1014F000102102F5003291421FD023F4403271498D
:101500008A421AD023F4881001F5C021884214D0F1
:1015100001F500318A4210D001F580218A420CD0B9
:1015200001F580218A4208D023F48033664A934231
:1015300003D0B9216048FFF7B1F9604B634F1A6CD3
:1015400042F080521A641B6C03F080530193019B9C
:101550003B6843F480733B60FFF7E6F980463B68E5
:10156000DB0540F1AF82554F226B3B6F13F44073A4
:1015700040F0B382236B03F44072B2F5407F4F4AD0
:1015800040F0D082916823F0704021F4F81120F4EB
:10159000407001439160C3F30B03116F0B4313675A
:1015A0002368DA0614D5A36B33F0807303D0F321DC
:1015B0004148FFF773F9414BD3F88C2022F0807239
:1015C000C3F88C20D3F88C20A16B0A43C3F88C207D
:1015D00023685B0413D5636E33F4803206D0B3F511
:1015E000003F03D0FD213448FFF758F9334A616EBC
:1015F000D2F8903023F440330B43C2F89030236884
:101600001F0414D5A36E33F4802207D0B3F5002F46
:1016100004D040F207112848FFF740F9274AA16E8D
:10162000D2F8903023F440230B43C2F89030236863
:10163000D80314D5E36E33F4801207D0B3F5001F3E
:1016400004D040F211111C48FFF728F91B4AE16E43
:10165000D2F8903023F440130B43C2F89030236843
:10166000990314D5236F33F4800207D0B3F5000F2C
:1016700004D040F21B111048FFF710F90F4A216FF8
:10168000D2F8903023F440030B43C2F89030236823
:101690005A061DD5636C032B04D940F22511064868
:1016A000FFF7FCF8054A616CD2F8903023F0030391
:1016B0000B43C2F890300BE0BB5B000800380240DF
:1016C000000302000003080000031C00007000403B
:1016D00023681B0618D5A36C6BB1043B082B05D8F7
:1016E00040F2111222FA03F3DF0704D440F22F1163
:1016F000AB48FFF7D3F8AB4AA16CD2F8903023F097
:101700000C030B43C2F890302368D80511D5E36C65
:1017100033F0300304D040F23911A148FFF7BEF88E
:10172000A04AE16CD2F8903023F030030B43C2F8AA
:1017300090302368990511D5236D33F0C00304D090
:1017400040F243119648FFF7A9F8964A216DD2F866
:10175000903023F0C0030B43C2F8903023685A0541
:1017600011D5636D33F4407304D040F24D118C48B1
:10177000FFF794F88B4A616DD2F8903023F44073F0
:101780000B43C2F8903023681B0511D5A36D33F4C9
:10179000406304D040F257118148FFF77FF8814A37
:1017A000A16DD2F8903023F440630B43C2F890301F
:1017B0002368DF0411D5E36D33F4405304D040F2C5
:1017C00061117748FFF76AF8764AE16DD2F89030F8
:1017D00023F440530B43C2F890302368980411D58A
:1017E000236E33F4404304D040F26B116C48FFF792
:1017F00055F86C4A216ED2F8903023F440430B43E5
:10180000C2F890302368590211D5A36F33F080637A
:1018100004D040F275116248FFF740F8614AA16FA9
:10182000D2F8903023F080630B43C2F890302368E5
:101830009A0215D5E36F33F0006304D040F27F11B4
:101840005748FFF72BF85749E26FD1F89030B2F1C3
:10185000006F23F0006308BF01251343C1F89030E7
:10186000236813F0080F18BF01255B0311D5636FC0
:1018700033F0407304D040F297114948FFF70EF857
:10188000484A616FD2F8903023F040730B43C2F89E
:10189000903023681F0213D5D4F8803033F0805382
:1018A00004D040F2A1113E48FEF7F8FF3D4AD4F8BB
:1018B0008010D2F8903023F080530B43C2F8903060
:1018C0002368580113D5D4F8843033F0005304D082
:1018D0004FF4D6713248FEF7E1FF324AD4F8841053
:1018E000D2F8903023F000530B43C2F890302368B5
:1018F000190113D5D4F8883033F0007304D04FF4B5
:10190000DB712748FEF7CAFF264AD4F88810D2F8C0
:101910008C3023F000730B43C2F88C302368DA005C
:1019200013D5D4F88C3033F0806304D04FF4E071D9
:101930001B48FEF7B3FF1B4AD4F88C10D2F88C304A
:1019400023F080630B43C2F88C30012E00F0F2804C
:101950002368B3F1007F00F0ED80012D40F0AE80F0
:10196000104D2B6823F080532B60FEF7DDFF0646F9
:101970002B689F0000F1AF816369323BB3F5BF7FF5
:1019800004D940F246210648FEF788FF23681D036C
:1019900001D5E26B42B1D80234D5236C93BB03E08E
:1019A000BB5B000800380240A369023B0D2B04D941
:1019B00040F24D215D48FEF771FFA36A013B1F2BEA
:1019C00004D940F24F215948FEF768FF584AD2F82F
:1019D0008830D2F8881003F4403301F0E0410B4323
:1019E000616943EA8113A16943EA0163C2F888305F
:1019F000D2F88C30A16A23F4F853013943EA012369
:101A0000C2F88C30236899021DD5E36FB3F1006FE3
:101A100019D1236A032B04D940F262214348FEF70F
:101A20003DFF434AD2F88830D2F8881003F0706343
:101A300001F0E0410B43616943EA8113216A43EA03
:101A40000143C2F8883023681A072BD5E369023BAB
:101A5000052B04D940F271213448FEF71FFFE36AD9
:101A600033F4403304D040F272213048FEF716FFC1
:101A70002F4AD2F88810D2F8883001F0706103F450
:101A800040330B43616943EA8113E16943EA01731F
:101A9000C2F88830D2F88C30E16A23F440330B432B
:101AA000C2F88C30224C236843F080532360FEF749
:101AB0003BFF054623689B0040F11481002009E0AC
:101AC000012601E5FEF730FFA0EB080064287FF651
:101AD00046AD032003B0BDE8F08302F440729342A8
:101AE0003FF448AD3B6F3A6F23F4407342F48032C9
:101AF0003A673A6F22F480323A673B673B6FD80708
:101B00007FF538ADFEF710FF41F2883980463B6F14
:101B100099073FF52FADFEF707FFA0EB08004845FA
:101B2000F5D9D6E7916821F4F81133E5BB5B0008DD
:101B3000003802406F4E336823F080633360FEF755
:101B4000F3FE074633681B0100F1BE806368323B39
:101B5000B3F5BF7F04D94FF4EE716748FEF79EFEE0
:101B60002368DF071CD5636BD3B9A368023B052B41
:101B700004D94FF4F1716048FEF790FE5D4AD2F847
:101B80008430D2F8841003F4403301F070610B43C9
:101B9000616843EA8113A16843EA0173C2F88430A3
:101BA00023681E0303D5E26BB2F5801F05D0D8026F
:101BB00030D5236CB3F5800F2CD1E368023B0D2B9D
:101BC00004D94FF4F9714C48FEF768FE636A013B93
:101BD0001F2B04D94FF4FA714748FEF75FFE454AC0
:101BE000D2F88430D2F8841003F4403301F0E0419D
:101BF0000B43616843EA8113E16843EA0163C2F879
:101C00008430D2F88C10636A21F01F01013B0B4332
:101C1000C2F88C302368D90119D52369032B04D964
:101C200040F207213448FEF739FE324AD2F88430B8
:101C3000D2F8841003F0706301F0E0410B43616857
:101C400043EA8113216943EA0143C2F884302368DF
:101C50009A0127D52369032B04D940F2162126487F
:101C6000FEF71CFEA368023B052B04D940F21721A6
:101C70002148FEF713FEE368023B0D2B04D94FF415
:101C800006711D48FEF70AFE236962681B0443EAD9
:101C90008213E26843EA0263A26843EA0273154AC8
:101CA000C2F88430134E336843F080633360FEF72C
:101CB0003BFE074633681B013FF54FAEFEF734FE8F
:101CC000C01B6428F6D904E7FEF72EFEC01B64286B
:101CD0007FF638AFFDE6FEF727FE801B64287FF60F
:101CE00047AEF6E6FEF720FE401B64287FF6E2AE24
:101CF000EFE600BF00380240BB5B00082DE9F3416E
:101D00000646B4200D461746984601F02DFE0446BF
:101D100000283AD085BB1E4B186820606388C3F347
:101D20000E051B04C4E901780DD504F16001012002
:101D300000F0C6FA032300220120009304F11003EF
:101D4000114600F0DAF900F0F9FE2346114933F8A4
:101D50000C2B11489208CDE90053234600F0FFFDFB
:101D600001280BD020460B2401F092FE00F094FFD6
:101D7000204602B0BDE8F0812868CEE72146E06841
:101D800001F032F834600024F0E70B24F0E700BFE4
:101D90003E5C0008355C0008D51D0008002001F0FD
:101DA00033B810B5FFF7FAFFB0F90230002B0ADAAA
:101DB000002310301A46194600F0B3F90020BDE8A0
:101DC000104001F083B801F063FE0020BDE8104030
:101DD00000F0F4BD10B50446D0E901309847C4F8CE
:101DE000B000BDE81040FFF7DCBF000008B5054BB0
:101DF00058434FF47A73B0FBF3F000F0C7FF0020B4
:101E000008BD00BF40420F0070477047034B03609E
:101E1000034B0B6080231360704700BF0007002056
:101E200000050020034B0360034B0B604FF48073ED
:101E3000136070479C0400209C00002000F1080300
:101E40004FF0FF3243600361C0E9022300230360C7
:101E5000704700230361704743689A684B608A604B
:101E6000516099600368086101330360704730B5C1
:101E70000C68631C0AD103695A684A6091608B60E0
:101E80005960036808610133036030BD00F1080246
:101E9000134652681568A542FAD9EDE70369D0E9FF
:101EA00001128A6051605968814208BF5A6000225D
:101EB00002611A68013A1A601868704710B5044642
:101EC00001F0F8FBA46B01F019FCB4FA84F04009AE
:101ED00010BD70B51646026C0446856B42B90668A3
:101EE0009EB9806801F040F9A6600135A56370BD18
:101EF0006EB9406802F043FF6368226C1344A26825
:101F00009342636024BF236863600020EDE7C068EC
:101F100002F035FF226CE36851429B1A226893421B
:101F2000E3603EBFA3685B18E360022EEDD10DB104
:101F3000013DEAE72846D8E7034608461A6C10B484
:101F400062B1DC68996814448C42DC605DF8044B33
:101F500024BF1968D960D96802F011BF5DF8044B3D
:101F6000704770B5044601F0A5FB94F8455004F1A4
:101F700024066DB2002D14DCFF2304F1100684F852
:101F8000453001F0BBFB01F095FB94F844506DB275
:101F9000002D12DCFF2384F84430BDE8704001F0CE
:101FA000ADBB636A002BE7D0304601F035F808B1CD
:101FB00001F0C4F8013D6DB2DCE72369002BE9D0E4
:101FC000304601F029F808B101F0B8F8013D6DB2D2
:101FD000DEE738B50D46044650B94FF0500372B6EF
:101FE00083F31188BFF36F8FBFF34F8F62B6FEE7A5
:101FF00001F060FB2268D4E90F3162604B43D018D6
:102000005B1AA0601A440020FF23E260A06384F8FA
:10201000443084F84530A5B9236973B104F1100048
:1020200000F0FAFF48B14FF0E0234FF08052C3F8C0
:10203000042DBFF34F8FBFF36F8F01F05FFB0120C3
:1020400038BD04F11000FFF7F9FE04F12400FFF79A
:10205000F5FEF2E7F7B506460D469DF820701C46E2
:1020600053B94FF0500372B683F31188BFF36F8FEB
:10207000BFF34F8F62B6FEE75AB1B1B94FF05003CC
:1020800072B683F31188BFF36F8FBFF34F8F62B6C1
:10209000FEE751B14FF0500372B683F31188BFF3DE
:1020A0006F8FBFF34F8F62B6FEE750230193019B02
:1020B000502B0AD04FF0500372B683F31188BFF350
:1020C0006F8FBFF34F8F62B6FEE7002D08BF224629
:1020D00001212046019B84F846102260C4E90F6567
:1020E000FFF777FF3B462A463146732084F84C7051
:1020F00002F03EF8204603B0F0BD10B49DF8044055
:1021000050B94FF0500372B683F31188BFF36F8F4D
:10211000BFF34F8F62B6FEE701945DF8044BFFF703
:1021200099BF2DE9F04186B00E461D460446039244
:1021300050B94FF0500372B683F31188BFF36F8F1D
:10214000BFF34F8F62B6FEE761B9036C53B14FF036
:10215000500372B683F31188BFF36F8FBFF34F8FB5
:1021600062B6FEE7022D0DD1E36B012B0AD04FF0D2
:10217000500372B683F31188BFF36F8FBFF34F8F95
:1021800062B6FEE700F0E0FF074680B300274FF09D
:10219000000801F08FFAA26BE36B9A4201D3022D83
:1021A00033D1204601F0EEFD039B014632465A2012
:1021B000009502F017F82A4631462046FFF789FEBF
:1021C000636A1BB104F1240000F026FF48B14FF010
:1021D000E0234FF08052C3F8042DBFF34F8FBFF3BD
:1021E0006F8F01F08BFA012006B0BDE8F081039BF0
:1021F000002BCCD04FF0500372B683F31188BFF39D
:102200006F8FBFF34F8F62B6FEE7039B6BB901F090
:1022100075FA204601F0B6FD039B014632465A206E
:10222000009501F0DFFF0020DEE717B904A800F0F9
:1022300039FF01F063FA00F081FC01F03BFA94F8F9
:102240004430FF2B01D184F8448094F84530FF2BB3
:1022500001D184F8458001F051FA03A904A800F0E7
:102260002DFF38BB01F026FAA26BE36B9A420ED128
:1022700001F044FA039904F1100000F08DFE2046AD
:10228000FFF76FFE00F008FD48B1012781E701F07C
:1022900035FA2046FFF765FE00F0FEFCF5E74FF04B
:1022A000E0234FF08052C3F8042DBFF34F8FBFF3EC
:1022B0006F8FEAE72046FFF754FE00F0EDFCA8E739
:1022C00000220B4613B5114600900120FFF7C2FE15
:1022D000044638B100231A46194683600360C36080
:1022E000FFF71FFF204602B010BD2DE9F8438946D5
:1022F00016461F46044650B94FF0500372B683F39A
:102300001188BFF36F8FBFF34F8F62B6FEE761B9DD
:10231000036C53B14FF0500372B683F31188BFF3CF
:102320006F8FBFF34F8F62B6FEE7022F0DD1E36BC5
:10233000012B0AD04FF0500372B683F31188BFF31C
:102340006F8FBFF34F8F62B6FEE701F0B5FAEFF380
:1023500011884FF0500372B683F31188BFF36F8F6B
:10236000BFF34F8F62B6A26BE36B9A4201D3022F89
:1023700025D194F84550204601F004FD324601462F
:102380006DB2602001F0AEFE3A4649462046FFF7A6
:10239000A0FD6B1C0ED1636A3BB104F1240000F078
:1023A0003BFE10B10EB101233360012088F3118888
:1023B000BDE8F88301356DB284F84550F5E7204655
:1023C00001F0E0FC32460146602001F08BFE002067
:1023D000ECE72DE9F04186B00E460446039250B971
:1023E0004FF0500372B683F31188BFF36F8FBFF3C2
:1023F0004F8F62B6FEE761B9036C53B14FF05003E3
:1024000072B683F31188BFF36F8FBFF34F8F62B63D
:10241000FEE700F099FE054698B300254FF000084E
:1024200001F048F9A76B002F39D031462046FFF75D
:1024300083FD204601F0A6FC05460020013F01F087
:10244000A1FC01230246294600935C20039B01F076
:10245000C9FEA763236973B104F1100000F0DCFD2D
:1024600048B14FF0E0234FF08052C3F8042DBFF382
:102470004F8FBFF36F8F01F041F9012006B0BDE827
:10248000F081039B002BC9D04FF0500372B683F349
:102490001188BFF36F8FBFF34F8F62B6FEE7039FC4
:1024A00097B901F02BF9204601F06CFC044600209E
:1024B00001F068FC0123024621465C200093039B47
:1024C00001F090FE0020D9E715B904A800F0EAFD5C
:1024D00001F014F900F032FB01F0ECF894F844300C
:1024E000FF2B01D184F8448094F84530FF2B01D1B3
:1024F00084F8458001F002F903A904A800F0DEFD8C
:1025000000BB2046FFF7DAFCB0B1039904F12400C8
:1025100000F042FD2046FFF724FD00F0BDFB48B966
:102520004FF0E0234FF08052C3F8042DBFF34F8FDC
:10253000BFF36F8F012573E72046FFF712FD00F010
:10254000ABFBF7E72046FFF70CFD00F0A5FB2046AC
:10255000FFF7B4FC0028EDD0A5E7000038B50C4A21
:102560000C46002352F8335002EBC3015DB942F828
:102570003340486001F006FC224601467120BDE868
:10258000384001F0AFBD0133082BEBD138BD00BF9F
:102590006407002070B504460D46164601F08AF81F
:1025A00094F84430FF2B02D1002384F8443094F88F
:1025B0004530FF2B02D1002384F8453001F09EF80E
:1025C000A36B2BB93246294604F1240000F000FD2C
:1025D0002046BDE87040FFF7C4BC00002DE9F34180
:1025E000044601F067F8384B384E1A68384F01320C
:1025F0001A603568002D5BD134601B68012B1FD138
:10260000B84601354046FFF719FC08F11408382D8B
:10261000F7D1DFF8E4802F4D4046FFF70FFC284646
:10262000FFF70CFC2C48FFF709FC2C48FFF706FCD1
:102630002B48FFF703FC2B4BC3F800802A4B1D608F
:102640002A4A2046136801336364136001F026FFB1
:102650002146236B204651F8342BD21A0092E26AAD
:1026600002F0C8F8204601F061FF214AE36A1168D0
:102670008B4200D913601420211D00FB0370FFF76B
:10268000EBFB01F03BF81B4B1B6873B13368DA6A54
:10269000E36A9A4209D24FF0E0234FF08052C3F828
:1026A000042DBFF34F8FBFF36F8F02B0BDE8F081F1
:1026B000104B1B68002BC3D13368DA6AE36A9A4275
:1026C000BED83460BCE700BFCC070020A40C0020BB
:1026D000440800201C08002000080020EC0700200F
:1026E000D40700201808002014080020B00700209C
:1026F000C4070020C007002030080020F8B51B4B9D
:1027000006461B4C0F461D6820680430FFF7C6FBC9
:10271000731C0BD157B120681B2101F02BFF2168DE
:1027200014480431BDE8F840FFF796BB2368AD19A3
:1027300020684FF004015D6009D301F01BFF0E4BD0
:1027400018682168BDE8F8400431FFF790BB01F03C
:1027500011FF0A4B186821680431FFF788FB084B0A
:102760001A68AA4200D91D60F8BD00BFC807002042
:10277000A40C0020D4070020140800201808002012
:10278000AC070020064A13681968064B19B94FF0C8
:10279000FF321A6070471268D268D2685268F8E750
:1027A00018080020AC07002010B590F85D300446F2
:1027B0003BB9006B01F06CF92046BDE8104001F018
:1027C00067B9012BF9D0022B0AD04FF0500372B633
:1027D00083F31188BFF36F8FBFF34F8F62B6FEE7AD
:1027E00010BD000080B5144C144F154D236883B9FB
:1027F000144B1B68012B09D94FF0E0234FF0805296
:10280000C3F8042DBFF34F8FBFF36F8FFFF7FCFAB0
:10281000EBE700F04FFFFB68DE68301DFFF73EFB83
:102820002B68013B2B602368013B236000F066FFAF
:102830003046FFF7B9FFD9E7E8070020EC07002092
:10284000CC070020440800202DE9F04796000746F9
:102850000D46A52132469846043EDDE90994206BD9
:1028600002F021FA236B1E4426F00706B5B36B1E57
:1028700004F133020F3513F8011F02F8011F09B1EB
:10288000AB42F8D1002384F84330089D4FF0000A92
:10289000201D372DC4F850A028BF3725E562E56418
:1028A000C5F13805FFF7D5FA04F11800FFF7D1FAA2
:1028B000C4F858A04246394630462461A561646296
:1028C000C4F854A084F85CA000F0CCFE2060B9F1FC
:1028D000000F01D0C9F80040BDE8F08784F83450FB
:1028E000D3E770B586B0DDE90B5455B94FF050030E
:1028F00072B683F31188BFF36F8FBFF34F8F62B649
:10290000FEE754B94FF0500372B683F31188BFF35A
:102910006F8FBFF34F8F62B6FEE764260596059E64
:10292000642E0AD04FF0500372B683F31188BFF3C0
:102930006F8FBFF34F8F62B6FEE725630225059EBA
:1029400084F85D5004AD029401950A9D0095FFF74F
:102950007BFF2046FFF742FE049806B070BD2DE9CC
:10296000F043074685B0900088461646994600F029
:10297000FBFF054620B94FF0FF3005B0BDE8F083FE
:10298000642000F0F1FF044698B10023056332464D
:10299000414680F85D300D9B0290384601930C9BB8
:1029A00000934B46FFF750FF2046FFF717FE01202C
:1029B000E3E7284601F06CF8DDE7000070B5044657
:1029C000294D00F077FE04B92C68261D3046FFF72C
:1029D00065FAA36A1BB104F11800FFF75FFA234AF6
:1029E0001368013313602B68A34227D13146204876
:1029F000FFF732FA1F4A136801331360204601F0D3
:102A0000C1F90146222001F04DFB204601F0AEFE47
:102A100000F074FE184B1B6823B32B68A34221D12E
:102A2000164B1B68A3B14FF0500372B683F31188A5
:102A3000BFF36F8FBFF34F8F62B6FEE7104A204699
:102A40001368013B1360FFF7AFFEFFF79BFED5E76E
:102A50004FF0E0234FF08052C3F8042DBFF34F8FA7
:102A6000BFF36F8F70BD00BFA40C0020B007002023
:102A7000EC070020E8070020C0070020A407002082
:102A8000CC07002030B589B00024254D07AA06A93F
:102A900005A8CDE90544FFF7B9F9059B079A02930C
:102AA000069B20492048CDE900432346FFF719FF44
:102AB0002860002832D000F0F3FB012821D14FF02C
:102AC000500372B683F31188BFF36F8FBFF34F8F3C
:102AD00062B6164B4FF0FF321A60154B2A68186029
:102AE000144B1C60144B1968914206D101F0C4FCD0
:102AF00009B0BDE8304000F07DBE186801F0F2FC7E
:102B0000F6E701300AD14FF0500372B683F3118813
:102B1000BFF36F8FBFF34F8F62B6FEE709B030BDD2
:102B2000A8070020425C0008E5270008AC07002049
:102B3000C0070020C8070020A40C0020024A136828
:102B400001331360704700BFA4070020014B1868D1
:102B5000704700BFC8070020444B1B682DE9F74FA2
:102B6000002B7BD1424B1D6801351D60CDB9414B17
:102B70001A68126852B14FF0500372B683F311888D
:102B8000BFF36F8FBFF34F8F62B6FEE73A4A196803
:102B9000106818601160394A136801331360FFF739
:102BA000F1FD374E0024374F3368DFF8E480AB4245
:102BB00016D9D8F800301422DB6A5343FB58022B95
:102BC000314B1B6828BF01240BB9FFF71EF92F4BAF
:102BD0001B68002B0CBF2046012003B0BDE8F08F1E
:102BE000DFF890A0DFF8ACB0DAF800301B681BB952
:102BF0004FF0FF333360DCE7DAF80030DB68D3F8FE
:102C00000C90D9F80420954201D23260D1E709F145
:102C1000040318460193FFF741F9D9F828201AB1A7
:102C200009F11800FFF73AF9484601F07FFCD9F89E
:102C30002C00DBF80020904201D9CBF800001423CF
:102C4000019903FB0070FFF707F9D8F80010D9F8D5
:102C50002C20CB6A9A4228BF0124C5E70A4A0024E7
:102C6000136801331360FFF7D0F8B0E7A407002022
:102C7000C80700201808002014080020B40700200E
:102C8000AC07002044080020BC070020B807002043
:102C9000A40C0020C40700202DE9F041334C236828
:102CA00053B94FF0500372B683F31188BFF36F8F9F
:102CB000BFF34F8F62B6FEE700F0FCFC2368013BD8
:102CC000236024682CB1002400F018FD2046BDE8E4
:102CD000F081274B1B68002BF5D0264D264EDFF8E0
:102CE000A88020E0EB68DC68271D04F11800FFF7DE
:102CF000D5F83846FFF7D2F8204601F017FCE36A12
:102D00003268934200D933601420394600FB0380B7
:102D1000FFF7A2F8194BE26A1B68DB6A9A4202D3FA
:102D2000174B01221A602B68002BDBD10CB1FFF787
:102D300029FD144D2C6844B1114E0127FFF70CFFFB
:102D400000B13760013CF9D12C600D4B1B68002BA2
:102D5000B9D04FF0E0234FF08052C3F8042DBFF3F9
:102D60004F8FBFF36F8F0124AEE700BFA407002091
:102D7000CC07002000080020C4070020A40C00207D
:102D8000B8070020BC0700204408002038B50446DE
:102D900050B94FF0E0234FF08052C3F8042DBFF339
:102DA0004F8FBFF36F8F38BD0E4B1D6855B14FF07D
:102DB000500372B683F31188BFF36F8FBFF34F8F49
:102DC00062B6FEE701462320FFF7B8FE01F06AF97C
:102DD00029462046FFF792FCFFF75EFF0028D8D077
:102DE000E1E700BFA407002038B50D46044608B946
:102DF000044B1C6800F05EFC6565BDE8384000F0DF
:102E00007DBC00BFA40C002010B5044608B9044BDB
:102E10001C6800F04FFC646D00F070FC204610BD93
:102E2000A40C0020F8B5224B1A68224B12B10122E3
:102E30001A60F8BD204C4FF0140C204E1A60204F41
:102E4000236832681F491A663A680CFB02F3CD58B2
:102E5000C818D5B1456808336D680B449D4245607C
:102E600004BF6B684360142303FB02114B68DB68EB
:102E70002360154B3A601B6822689A4213D101F017
:102E8000FBFA23681B6E3360D3E752B94FF050034F
:102E900072B683F31188BFF36F8FBFF34F8F62B6A3
:102EA000FEE7013AD1E7206801F01CFBE9E700BF2B
:102EB000A4070020B8070020A40C0020D0070020A1
:102EC000C407002044080020A807002070B504466D
:102ED0002C4D00F0EFFB04B92C682046261D00F0B5
:102EE00051FF0146292001F0DDF83046FEF7D6FFFC
:102EF000A36A1BB104F11800FEF7D0FF1B21204686
:102F000001F038FB31462048FEF7A6FF94F85C300C
:102F1000012B02D1002384F85C301C4E00F0EEFB44
:102F200033682BB100F0C6FBFFF72CFC00F0E6FB8A
:102F30002B68A34219D13368C3B1154B1B6853B139
:102F40004FF0500372B683F31188BFF36F8FBFF356
:102F50004F8F62B6FEE74FF0E0234FF08052C3F888
:102F6000042DBFF34F8FBFF36F8F70BD064A1168FA
:102F7000084A1268914201D12B60F6E7BDE8704023
:102F8000FFF750BFA40C0020D4070020C00700208A
:102F9000A4070020CC07002010B50C4650B94FF014
:102FA000500372B683F31188BFF36F8FBFF34F8F57
:102FB00062B6FEE7054B19681831FEF758FF204648
:102FC0000121BDE81040FFF799BB00BFA40C002011
:102FD00038B50C46154650B94FF0500372B683F31E
:102FE0001188BFF36F8FBFF34F8F62B6FEE7094BB7
:102FF00019681831FEF730FF002D4FF0240018BF7C
:103000004FF0FF3401F03CF829462046BDE8384037
:10301000FFF774BBA40C002038B5C368DC6854B952
:103020004FF0500372B683F31188BFF36F8FBFF375
:103030004F8F62B6FEE704F118052846FEF72EFF13
:10304000124B1B68EBB9251D2846FEF727FF2046CB
:1030500001F06CFA0E4AE36A11688B4200D91360E2
:1030600014200C4A294600FB0320FEF7F5FE0A4B0C
:10307000E26A1B68DB6A9A4206D90120074B186096
:1030800038BD29460648F0E70020F9E7A4070020EC
:10309000C407002044080020A40C0020B80700202A
:1030A00000080020034B1B680360034B1B68436050
:1030B000704700BFB4070020C807002070B50C4659
:1030C000054650B94FF0500372B683F31188BFF331
:1030D0006F8FBFF34F8F62B6FEE751B94FF05003C9
:1030E00072B683F31188BFF36F8FBFF34F8F62B651
:1030F000FEE700F0DFFA0F4B196823685A1C10D066
:103100000D482E6800686A68864201D08A420FD94D
:10311000881A83420AD95B1A284613442360FFF7B2
:10312000C1FF002400F0EAFA204670BD00232360AE
:103130000124F7E7C8070020B4070020014B012253
:103140001A607047B8070020054B1B6833B1054B68
:103150001868B0FA80F040094000704701207047BD
:10316000C0070020A407002038B508B9002038BDEA
:103170001F4B1C6884420AD04FF0500372B683F391
:103180001188BFF36F8FBFF34F8F62B6FEE7236DD9
:1031900053B94FF0500372B683F31188BFF36F8FAA
:1031A000BFF34F8F62B6FEE7E16A013BE26C236535
:1031B0009142DBD0002BD9D1251D2846FEF76EFEAB
:1031C00021464A2000F06EFFE36CC3F13802E3624F
:1031D000A261084A11688B4200D91360064A142084
:1031E000294600FB0320FEF737FE0120BFE700BFA2
:1031F000A40C0020C407002044080020914208B518
:10320000416000610AD8D21A83699A420DD2011D29
:10321000074B1868FEF72BFE002008BD9A4201D22A
:10322000994202D2011D034BF3E70120F5E700BFED
:10323000A40D0020A80D0020F7B5114C00F03AFABB
:103240002568BDB90F4F104E3846FEF7F7FD3046E2
:10325000FEF7F4FD0D4B0E4A10211F600A200D4BA6
:103260001E600D4B0095FEF748FF206010B10B4922
:10327000FFF774F903B0BDE8F04000F03FBA00BFBB
:10328000A00D0020C00D0020AC0D0020A80D0020D6
:10329000F80C0020A40D0020A80C0020475C0008BA
:1032A00010B588B0FFF7C8FF134B1B68B3B10024FB
:1032B00007AA06A905A8CDE90544FEF7B3FD059BBD
:1032C000079A0293069B0D49019302230C48009331
:1032D0002346FFF706FB0B4B186050B94FF0500325
:1032E00072B683F31188BFF36F8FBFF34F8F62B64F
:1032F000FEE7012008B010BDA00D00204C5C0008C6
:10330000093400089C0D00207FB5164604461A4675
:1033100050B94FF0500372B683F31188BFF36F8F2B
:10332000BFF34F8F62B6FEE70C4D286878B10529D0
:103330000294CDE900160CDCFFF706FF00230228FB
:10334000694628680CBF089A1A46FEF7EAFE04B0E0
:1033500070BD00236946FEF7C8FFF8E7A00D002006
:103360002DE9F347DFF89C800646FFF7EFFB0546A3
:10337000D8F80030834209D9204F3B681A686AB9EF
:103380001F4A116813600123396000E000232846BA
:103390003360C8F8005002B0BDE8F087DB68DC6835
:1033A000D3F8009004F1040A5046FEF777FD236A33
:1033B0002046984794F828305B07DED5A3694B4434
:1033C000994506D25146386863602461FEF74FFD87
:1033D000D3E700234A46204619460093FFF794FF9F
:1033E0000028CAD14FF0500372B683F31188BFF39F
:1033F0006F8FBFF34F8F62B6FEE700BFA80D0020AE
:10340000A40D0020980D00202DE9F043714D89B0E6
:10341000714E2B68D3F80080B8F1000F37D0DB680D
:103420000024D3F80080FFF789FB04A8FFF798FF7A
:10343000049B8146002B6BD1002C4ED1404552D3CA
:10344000FFF72AFC2B68DB68DF68381DFEF726FDD6
:1034500097F8283058071CD5B96943464A4638467C
:103460004144FFF7CBFEC0B12346424621463846D1
:103470000094FFF749FF80B94FF0500372B683F311
:103480001188BFF36F8FBFF34F8F62B6FEE7012441
:10349000C9E723F0010387F828303B6A384698478C
:1034A000002204A93068FEF794FF0028B1D0049BE5
:1034B0000698002B2FDB069C6369002B32D103A8F2
:1034C000FFF74EFF049B0246092BE9D8DFE803F023
:1034D0002E2E2E59607A2E2E5960404B1B681C6888
:1034E000B4FA84F464092246A8EB09013068FFF7B6
:1034F00051F8FFF7D1FB0028D2D14FF0E0234FF075
:103500008052C3F8042DBFF34F8FBFF36F8FC7E70F
:10351000FFF7C2FBC4E7059B07999847049B002B64
:10352000BEDBC8E7201DFEF7B9FCC8E794F82830D9
:103530002046A16943F0010384F82830059B194413
:10354000FFF75CFE0028ABD0236A2046984794F82A
:1035500028305907A4D5A269002305992046009375
:103560000A441946FFF7D0FE002899D14FF05003C6
:1035700072B683F31188BFF36F8FBFF34F8F62B6BC
:10358000FEE794F8283023F0010384F8283087E719
:1035900094F8283043F0010384F828300599A1619C
:1035A00051B94FF0500372B683F31188BFF36F8F98
:1035B000BFF34F8F62B6FEE7034601442046FFF794
:1035C0001DFE6DE794F828309A07DCD4204600F001
:1035D0005FFA65E7A80D0020A00D0020A40D0020D3
:1035E00008480068006880F308884FF0000080F306
:1035F000148862B661B6BFF34F8FBFF36F8F00DFE1
:1036000000BF000008ED00E0DFF80C00016841F4A5
:10361000700101607047000088ED00E0002382B077
:1036200001930F4B1B6801330AD04FF0500372B661
:1036300083F31188BFF36F8FBFF34F8F62B6FEE73E
:103640004FF0500372B683F31188BFF36F8FBFF34F
:103650004F8F62B6019B002BFCD002B0704700BFB9
:10366000180000204FF0807321F0010140F8202C59
:1036700044380364034BC16383636FF00203036246
:10368000704700BF1D360008000000000000000069
:10369000074B19680868B0E8F04F80F30988BFF35A
:1036A0006F8F4FF0000080F311887047AFF30080F8
:1036B000A40C00204FF0500372B683F31188BFF3BF
:1036C0006F8FBFF34F8F62B60B4A13680133012B24
:1036D000136010D14FF0E023D3F8043DDBB253B1B7
:1036E0004FF0500372B683F31188BFF36F8FBFF3AF
:1036F0004F8F62B6FEE7704718000020094A136832
:1037000053B94FF0500372B683F31188BFF36F8F34
:10371000BFF34F8F62B6FEE7013B13600BB983F333
:103720001188704718000020000000000000000011
:10373000EFF30980BFF36F8F154B1A681EF0100F5F
:1037400008BF20ED108A20E9F04F10602DE9090034
:103750004FF0500072B680F31188BFF34F8FBFF364
:103760006F8F62B6FFF75EFB4FF0000080F31188A9
:1037700009BC19680868B0E8F04F1EF0100F08BFC8
:10378000B0EC108A80F30988BFF36F8F704700BFD9
:10379000A40C002008B54FF0500372B683F31188D3
:1037A000BFF36F8FBFF34F8F62B600F02DFEFFF7B0
:1037B000D3F948B14FF0E0234FF08052C3F8042D05
:1037C000002383F3118808BD00F044FEF8E70000F1
:1037D0004FF0E02200234FF47A7113619361044BA0
:1037E0001B68B3FBF1F3013B53610723136170477F
:1037F0001C0000202C4B37B51A78D2B20192FF2260
:103800001A701B78294ADBB28DF803309DF803301B
:1038100003F0500313700723254A13609DF803102B
:10382000136809060CD4032B13D04FF0500372B663
:1038300083F31188BFF36F8FBFF34F8F62B6FEE73C
:10384000013B13609DF803305B00DBB28DF8033061
:10385000E4E74FF440734FF0E02400251360019B30
:10386000114ADBB21370D4F8203D43F47003C4F85E
:10387000203DD4F8203D43F07043C4F8203DFFF7CD
:10388000A7FF0C4B1D60FFF7BFFED4F8343F43F099
:103890004043C4F8343FFFF7A3FEFFF7C3FA2846BE
:1038A000FFF7BCFE03B030BD00E400E0D80D0020FF
:1038B000D40D002018000020EFF305830F2B10D942
:1038C000134A9B5C134A12789A420AD94FF050036C
:1038D00072B683F31188BFF36F8FBFF34F8F62B659
:1038E000FEE74FF0E0230C4AD3F80C3D126803F4D6
:1038F000E06393420AD94FF0500372B683F3118804
:10390000BFF36F8FBFF34F8F62B6FEE7704700BF04
:10391000F0E300E0D80D0020D40D0020104B10B5CE
:103920001A461B688342FBD354681119884201BFB1
:103930004168104609195160446801198B420CD145
:10394000084909688B4203D05968214441601968CD
:103950009042016018BF106010BD1946F8E700BF23
:10396000EC0D0020E80D00202DE9F0410446FFF7A2
:10397000E5F84149414D0B680BBB414A5607414EA2
:103980001BBFD01D02F570524FF4705320F007009A
:103990001CBF131A02460020134432607060083BBB
:1039A00023F00703C3E90000981A0B60C2E9003056
:1039B000354B1860354B18604FF000432B602E6874
:1039C000264254D1002C43D004F1080360071CBFE9
:1039D00023F007030833002B49D02C4F3C689C424E
:1039E00045D3284A15686868984204D2D5F800C0C3
:1039F000BCF1000F17D10968A94238D02968D2F864
:103A000000801160C21A102A14D9E81841070DD09D
:103A10004FF0500372B683F31188BFF36F8FBFF37B
:103A20004F8F62B6FEE72A466546DCE742606B6070
:103A3000FFF774FF6A6800231349A41A1643086845
:103A40003C6084426E602B6038BF0C6008F1080453
:103A5000FFF722F963070CD04FF0500372B683F3DF
:103A60001188BFF36F8FBFF34F8F62B6FEE700245C
:103A7000EEE72046BDE8F081E80D0020DC0D0020D7
:103A8000F40D0020EC0D0020E00D0020E40D0020DE
:103A900010B50446002832D0194A50F8043C126888
:103AA00013420AD14FF0500372B683F31188BFF36B
:103AB0006F8FBFF34F8F62B6FEE750F8081C51B10D
:103AC0004FF0500372B683F31188BFF36F8FBFF3CB
:103AD0004F8F62B6FEE723EA020340F8043CFFF78B
:103AE0002DF8084A54F8043CA4F1080011680B446E
:103AF0001360FFF713FFBDE81040FFF7CDB810BD0E
:103B0000DC0D0020E40D00200369C26893429CBFD5
:103B100081685B18013B981A70472DE9F041D0E9A4
:103B2000028405464068A8EB04060F46204414446E
:103B3000964204D901F023F9EC60BDE8F081A4EBD2
:103B40000804324601F01BF9B91922466868F1E70A
:103B50002DE9F843064689461746C5684FF0000828
:103B600033694946B4689D42706828BF1B19641BBD
:103B70002844BC4203F1FF3328BF3C465B1B9C42F8
:103B800028BF1C462246254401F0F9F8B368A0443A
:103B9000A144AB4208BF00253F1BF560E0D1404681
:103BA000BDE8F88310B50323104C114A1149E01DFC
:103BB000A2612266104AC4E90433104B62661022E7
:103BC000E3614FF48063A26623620023A362636211
:103BD000E3622367E366636701F0C9F8084920469A
:103BE00001F0C5F82023A37110BD00BF044E0020D2
:103BF000545C00085D5C0008F4490020044A002081
:103C0000615C00082DE9F84FDFF87C808246894628
:103C1000164698F800300BB9FFF7C4FF182707FBCA
:103C20000A873D6FD7F86CB05D452BD9BC6E48460E
:103C3000796E641B2944B44228BF34462246254489
:103C400001F09DF8BB6EA144361BAB4208BF0025B6
:103C5000ABEB050B5E4528BF5E4656B118233444D6
:103C60003246484603FB0A83596E2944354401F025
:103C700086F824B1182303FB0A88C8F87050204640
:103C8000BDE8F88F0024E3E7044E0020F8B51827BC
:103C9000134B0E46144600FB07751D4407FB00330B
:103CA000DB6A012B0AD0022B14D023B92846FFF778
:103CB0002BFF844208D900242046F8BD2846FFF790
:103CC00023FF844228BF0446224631462846FFF798
:103CD00024FFF1E72846BDE8F840FFF739BF00BFF1
:103CE000044E0020F8B50B4B04460D4616461B78D3
:103CF0000BB9FFF757FFEFF311874FF0200181F366
:103D00001188324629462046FFF7C0FF87F3118805
:103D1000F8BD00BF044E002010B51C46114600201F
:103D20001A46FFF7DFFF204610BD70B51646054660
:103D300008460C46FCF7CAFAB04228BF3046FE28B7
:103D4000C2B208D82B4603F8012B5A1E21188C4208
:103D500008D1184470BDFF236A70020A2B70EB1C57
:103D6000AA70F2E714F8015B02F8015FEFE70000C8
:103D7000034B1B6A13B15B6803B11847704700BF60
:103D8000944F0020024B1B69C01A8008704700BF87
:103D9000944F0020044B10B51C6824B1E36803B1B4
:103DA00098472469F9E710BD904F002010B5EFF354
:103DB00011844FF0200181F31188094B1B2209481F
:103DC0001B787F2B89BF084906490B71012388BFE7
:103DD000053101F8013B00F0AFF884F3118810BD04
:103DE0008F4F0020B04E0020AC4E002038B52C4C38
:103DF0002378002B52D101202070EFF311854FF072
:103E0000200181F311880A222649FCF719FA85F36B
:103E100011880A2000F034F9EFF311854FF02001EA
:103E200081F31188204861687F29CAB200F101033B
:103E300020D80270A0687F28C2B203F1010120D807
:103E40001A7022697F2AD3B222D80B70022318225B
:103E500015484B70194400F06FF885F31188636AB8
:103E600003B1984700F06AF9FFF782FFBDE83840D8
:103E7000FFF79CBF62F07F02C909184603F8012CC6
:103E8000D2E762F07F02C0090B4601F8012CD2E7AD
:103E900063F07F03D20901F8013BD3E738BD00BFCF
:103EA000944F0020685C0008B04E002007B5012246
:103EB0000DF107011046FFF7A5FE002819DD9DF85A
:103EC0000730072B08D8A3B1023B052B0FD8DFE83A
:103ED00003F01316191C1F22802B1FD01B0608D5B8
:103EE00001220DF107011046FFF78CFE01E0FFF7FC
:103EF0007DFF03B05DF804FB00F0BEF9F9E700F0C8
:103F00001DF9F6E7FFF734FFF3E700F0CDF9F0E72E
:103F1000FFF74CFFEDE7FFF73DFFEAE701220DF168
:103F200007011046FFF76EFE0028E2DD9DF807004E
:103F300000F052FBDDE700002DE9FF414D4C064645
:103F40000F4615462378012B23D11F2D6DD9BB1B9E
:103F50007F2BDAB287BFDB0962F07F0206F1FF3305
:103F600006F8012C82BF06F8013CB31E06F8022CAD
:103F70007F2DEAB283BFED09991E62F07F0203F143
:103F8000FF3186BF03F8015C03F8022C03F8012C13
:103F900054E03BB3022BD8D1012362690DF1050037
:103FA0008DF804307F2AD3B200F101012BD80370C1
:103FB000314BD3F80480E368A8EB03037F2BD8B21E
:103FC00001F1010226D8087001A90120521AFCF75C
:103FD00037F930B32378C4F80C80013B2370237881
:103FE000012BB2D0254BD3F88420D3F888309A42E5
:103FF00006D0A57825B90123A370FFF757FFA57058
:1040000004B0BDE8F08163F07F03D209084601F8EF
:10401000013CC7E760F07F00DB09114602F8010CA4
:10402000CCE7636901336361D9E7E369EB40DB0700
:10403000D8D4172D8BD8711E06F8015C0E4B5D6825
:10404000E368EB1A7F2BD8B207F1010207D838706A
:10405000521A0120FCF7F4F840B1E560C2E760F0C5
:104060007F00DB09174602F8010CEBE723780133E8
:104070002370B7E7944F0020001000E0044E0020AA
:10408000024610B5EFF311844FF0200181F311883F
:1040900003490846FFF750FF84F3118810BD00BFA5
:1040A000B04E002038B502460B46EFF311854FF0B5
:1040B000200181F311880A487F2BDCB200F1010155
:1040C00006D804700648FFF737FF85F3118838BD1E
:1040D00064F07F04DB09084601F8014CECE700BFFF
:1040E000B04E002070B50B46EFF311854FF0200164
:1040F00081F31188104E7F2BD9B206F101040DD83F
:1041000031707F2AD3B204F101010ED80246237028
:104110000948FFF711FF85F3118870BD61F07F0139
:10412000DB09264604F8011CE5E763F07F03D209AA
:104130000C4601F8013CE4E7B04E002008B50A4BFC
:104140001B6A4BB11B683BB198470A4601460D20DC
:10415000BDE80840FFF7C6BF044B0C205968BDE816
:104160000840FFF79FBF00BF944F0020001000E001
:10417000F8B50C46EFF311864FF0200181F311885A
:10418000174F7F2CE5B207F1010113D83D707F2A4C
:10419000D5B201F1010414D80D707F2BDDB204F10A
:1041A000010115D8024625700D48FFF7C5FE86F3BC
:1041B0001188F8BD65F07F05E4090F4601F8015C40
:1041C000DFE765F07F05D209214604F8015CDEE7F0
:1041D00065F07F05DB090C4601F8015CDDE700BFF7
:1041E000B04E0020F8B5069F0C46EFF311864FF055
:1041F000200181F31188DFF87CC07F2CE1B20CF143
:1042000001051AD88CF800107F2AD4B205F10101FB
:104210001AD82C707F2BDAB201F101041BD80A7076
:104220007F2FFBB204F101011CD802462370114814
:10423000FFF782FE86F31188F8BD61F07F01E40983
:10424000AC4605F8011CD8E764F07F04D2090D469E
:1042500001F8014CD8E762F07F02DB09214604F83F
:10426000012CD7E763F07F03FF090C4601F8013CFE
:10427000D6E700BFB04E002038B5EFF311854FF000
:10428000200181F31188064C237833B105490B22B4
:104290000846FFF751FE0023237085F3118838BDCF
:1042A000944F0020B04E002070B5EFF311854FF011
:1042B000200181F311881C4C1C4861687F29CAB217
:1042C00000F101031AD80270A0687F28C2B203F17E
:1042D00001011AD81A7022697F2AD3B21CD80B7038
:1042E0000223182211484B701944FFF725FE85F36D
:1042F0001188636AB3B1BDE87040184762F07F026D
:10430000C909184603F8012CD8E762F07F02C009FA
:104310000B4601F8012CD8E763F07F03D20901F8BE
:10432000013BD9E770BD00BF944F0020B04E002084
:1043300070B50446EFF311854FF0200181F3118829
:104340002F4E036832692F489B1A9B087F2BD9B2E6
:1043500000F1010232D80170A1687F29CBB202F1CD
:10436000010032D8137020226168FFF7DEFC0922B9
:1043700001462448FFF7E0FD2368326921489B1A73
:104380009B087F2BD9B200F1010225D80170E068AB
:104390007F28C3B202F1010125D8137022697F2A58
:1043A000D3B227D80B7000231522023101F8013C4B
:1043B0001448FFF7C1FD85F3118870BD61F07F01DE
:1043C000DB09104602F8011CC0E763F07F03C9094E
:1043D000024600F8013CC0E761F07F01DB091046AE
:1043E00002F8011CCDE763F07F03C0090A4601F81B
:1043F000013CCDE763F07F03D20901F8013BCEE732
:10440000944F0020B04E002010B5EFF311844FF010
:10441000200181F311884FF0E0230C48D3F8041DEC
:10442000CAB211F4C07FC1F308031DBF62F07F025E
:104430000749DB0905491CBF0A710531022201F851
:10444000013BFFF779FD84F3118810BDB04E0020C9
:10445000AC4E002010B5EFF311844FF0200181F332
:104460001188044903220846FFF766FD84F311888A
:1044700010BD00BFB04E002010B5EFF311844FF017
:10448000200181F31188044911220846FFF754FDE9
:1044900084F3118810BD00BFB04E002010B5EFF3BB
:1044A00011844FF0200181F311880C4B0C4A1B69D9
:1044B000C01A80087F28C3B202F1010107D8137027
:1044C00008220748FFF738FD84F3118810BD63F018
:1044D0007F03C0090A4601F8013CEBE7944F002036
:1044E000B04E002010B5EFF311844FF0200181F39E
:1044F00011880C4B0C4A1B69C01A80087F28C3B274
:1045000002F1010107D8137004220748FFF714FDD8
:1045100084F3118810BD63F07F03C0090A4601F8D7
:10452000013CEBE7944F0020B04E002010B5EFF3B4
:1045300011844FF0200181F311880C4B0C4A1B6948
:10454000C01A80087F28C3B202F1010107D8137096
:1045500006220748FFF7F0FC84F3118810BD63F0D2
:104560007F03C0090A4601F8013CEBE7944F0020A5
:10457000B04E002038B50B46EFF311844FF0200108
:1045800081F31188124A134D1269801A80087F281E
:10459000C1B205F101020DD829707F2BD8B202F10A
:1045A00001010ED8107007220A48FFF7C5FC84F3FA
:1045B000118838BD61F07F01C009154602F8011C61
:1045C000E5E760F07F00DB090A4601F8010CE4E74B
:1045D000944F0020B04E002038B51B4B1C684CBBDC
:1045E00038BD2469002CFBD001339842F9D8EFF391
:1045F00011854FF0200181F311887F2885BF134B6F
:104600000122134B187188BF053303F8012BA168F1
:104610007F29CAB203F101000FD81A7080222168E5
:10462000FFF783FB162201460948FFF785FC85F357
:104630001188D5E700230246D7E762F07F02C90957
:10464000034600F8012CE3E7904F0020AC4E002019
:10465000B04E0020F0B50D4691B00646002416F885
:10466000013B83B1252B31D1116810AF0F2C01F123
:10467000040307EB84070968136004F1010347F89A
:10468000401C24D11C46EFF311864FF0200181F32A
:104690001188802201461E48FFF747FB7F2DEAB2B2
:1046A00000F1010315D8027020467F28C2B203F141
:1046B000010115D86D461A70013C18D21A2214480F
:1046C000FFF73AFC86F3118811B0F0BD23461C4673
:1046D000C5E762F07F02ED09184603F8012CDDE71B
:1046E00062F07F02C0090B4601F8012CDDE755F8A6
:1046F000042B7F2AD3B201F1010002D80B700146CE
:10470000DAE763F07F03D209014600F8013CF0E7E5
:10471000B04E00200FB407B504AB01AA002153F836
:10472000040B0193FFF796FF03B05DF804EB04B0B0
:104730007047000038B5EFF311854FF0200181F389
:104740001188094C014680222046FFF7EEFA01232A
:10475000811C1A220370002343702046FFF7ECFBF4
:1047600085F3118838BD00BFB04E0020F8B5184D54
:104770002A68A2B100241421164B01FB04F69E59AD
:10478000864202D00134A242F7D1561EA64207D17A
:104790001422002102FB043000F085FA2C60F8BDE1
:1047A000A242FCD9142202FB06F1544358185F5868
:1047B00019191F5143684B6083688B60C368CB60D5
:1047C00003690B61002100F06EFA2E60E7E700BF7D
:1047D000BC4F0020C04F00207FB5CDE90101CDE9DD
:1047E000032301A8089B0593FFF7A2FD07B05DF81E
:1047F00004FB00002DE9F0410C460546164616491B
:10480000052220461F46DDF8188000F03CFA00B370
:1048100012480168072904D91148BDE8F041FFF7A3
:1048200089BF1422DFF83CC04A4301310CEB02037C
:104830004CF802500160324621462846C3E9014641
:10484000C3E903783B46CDF81880BDE8F041FFF797
:10485000C3BFBDE8F08100BF425C0008BC4F002030
:10486000725C0008C04F0020064C08B523689847CA
:104870000120FDF7BBFA636898470120FDF7B6FAFF
:10488000F4E700BF0800002008B5FBF771FF002324
:104890000C4A19460C48FDF731FA034628B10B4B78
:1048A0003D210B4A0B4800F0B9F801460A4A0B4873
:1048B000FDF724FA18B1054B4121054AF2E7FEF74E
:1048C000E1F8FEE76948000864500020C25C000877
:1048D000EF5C0008CE5C0008F9480008605000203A
:1048E00082B000234CF2503203F0030101339342B3
:1048F0000191F9D102B07047074C08B5FFF7F0FFFE
:10490000236898470120FDF771FA636898470220F1
:10491000FDF76CFAF2E700BF000000200D4B82B0FB
:104920000F216FF001001A6C42F080521A641A6C69
:1049300002F080520092009A5A6C42F480425A640B
:1049400000225B6C03F480430193019B02B0FCF7EF
:104950000FB800BF003802407047FEE7FEE7FEE7F1
:10496000FEE7704708B5FBF7D3FFFEF7EDFB012824
:1049700003D0BDE80840FEF70DBF08BD0F49002079
:10498000D1F8883043F47003C1F888300C4B1A68B2
:1049900042F001021A6098601A6822F0847222F4D0
:1049A00080321A60074A5A601A6822F480221A601C
:1049B000D8604FF000638B60704700BF00ED00E0EF
:1049C0000038024010300024DFF834D0002103E02A
:1049D0000C4B5B58435004310B480C4B42189A4225
:1049E000F6D30B4A02E0002342F8043B094B9A42FB
:1049F000F9D3FFF7C3FF00F093F9FFF745FF7047C6
:104A000000000820845D0008000000207C000020D9
:104A10007C000020B8510020FEE700001FB51446BE
:104A20001A46094B1B680546D86854B9074B1C4603
:104A3000CDE9013400912B46054900F0B1F800F0B2
:104A4000ACF9044BF4E700BF2C000020515A0008D9
:104A5000115D0008045D0008002310B50446C0E99C
:104A60000033C0E90433836081814366C28183617E
:104A7000194608225C3000F016F90D4B63620D4BAD
:104A8000A3620D4BE3620D4B23630D4B24629C42EA
:104A900006D003F16802944202D0D0339C4205D183
:104AA00004F15800BDE8104000F05EB910BD00BF31
:104AB000014C0008234C00085B4C00087F4C0008A8
:104AC00068500020024A0349034800F07BB800BF49
:104AD00020000020415600083000002041680C4BA7
:104AE000994210B5044601D000F0AAFDA168094B17
:104AF000994202D0204600F0A3FDE168064B99429E
:104B000004D02046BDE8104000F09ABD10BD00BFA3
:104B100068500020D05000203851002010B50B4BB9
:104B20000B4C0C4A1A60204600220421FFF794FF28
:104B300004F1680001220921FFF78EFF04F1D00083
:104B40000222BDE810401221FFF786BFA0510020CD
:104B500068500020C54A0008014800F006B900BFAF
:104B6000A9510020014800F001B900BFA95100205F
:104B700010B50446FFF7F0FF236A1BB1BDE81040F3
:104B8000FFF7F0BF044B2362044B1B68002BF5D1E9
:104B9000FFF7C4FFF2E700BFDD4A0008A051002084
:104BA0000EB403B5014603AB054853F8042B006867
:104BB000019300F01BFA02B05DF804EB03B07047FC
:104BC0002C0000202DE9F8430746884614460026AD
:104BD000D4E90195B9F1010905D52468002CF7D174
:104BE0003046BDE8F883AB89012B07D9B5F90E3003
:104BF000013303D029463846C04706436835E9E704
:104C000010B50C46B1F90E1000F078F80028ABBFD3
:104C1000636DA3891B1823F48053ACBF6365A38124
:104C200010BD2DE9F0411F468B89DB0505460C467A
:104C3000164605D5B1F90E100223002200F04CF8FB
:104C4000A389B4F90E1023F48053A38132463B4666
:104C50002846BDE8F041FFF75FB810B50C46B1F942
:104C60000E1000F039F8431CA38915BF606523F4CA
:104C7000805343F48053A38118BFA38110BDB1F9C1
:104C80000E1000F019B810B501390244904201D15C
:104C9000002005E0037811F8014FA34201D0181B52
:104CA00010BD0130F2E702440346934200D1704741
:104CB00003F8011BF9E7000038B5064D0023044650
:104CC00008462B6000F050FE431C02D12B6803B154
:104CD000236038BDA451002038B5074D044608466E
:104CE000114600222A601A4600F066FE431C02D1DB
:104CF0002B6803B1236038BDA451002038B5074D9F
:104D000004460846114600222A601A4600F05CFE5E
:104D1000431C02D12B6803B1236038BDA45100208D
:104D200070B50D4D0D4C641BA4100026A64209D190
:104D30000B4D0C4C00F060FE641BA4100026A64234
:104D400005D170BD55F8043B98470136EEE755F89C
:104D5000043B98470136F2E77C5D00087C5D000863
:104D60007C5D0008805D000870477047704703460F
:104D700011F8012B03F8012B002AF9D170470A44DE
:104D8000914200F1FF3300D1704710B511F8014B8B
:104D900003F8014F9142F9D110BD08B5062000F08B
:104DA00033FD012000F026FE38B50546002941D02C
:104DB00051F8043C0C1F002BB8BFE41800F0E0F8D9
:104DC0001D4A136833B9636014602846BDE8384053
:104DD00000F0DCB8A34208D9206821188B4201BF3B
:104DE00019685B6809182160EDE71A465B680BB12A
:104DF000A342FAD911685018A0420BD1206801448F
:104E0000501883421160E0D118685B685360084411
:104E10001060DAE702D90C232B60D6E7206821184E
:104E20008B4204BF19685B68636004BF0918216086
:104E30005460CAE738BD00BFB051002070B50F4EB6
:104E40000C463168054611B900F0FAFC3060214685
:104E5000284600F0F5FC431C03D14FF0FF342046F8
:104E600070BDC41C24F00304A042F8D0211A2846C7
:104E700000F0E6FC0130F2D1EFE700BFAC510020BA
:104E80002DE9F843CD1C25F0030508350C2D38BF5E
:104E90000C25002D064601DBA94204D90C23336002
:104EA0000020BDE8F883DFF8D48000F069F8D8F876
:104EB00000301C4644BB29463046FFF7BFFF431C69
:104EC000044658D1D8F800402746002F43D1002C83
:104ED0004BD023683946304604EB030900F0B0FCA0
:104EE000814542D121686D1A29463046FFF7A6FF59
:104EF00001303AD023682B442360D8F800305A6838
:104F000062BBC8F800700FE02268521B20D40B2A45
:104F100017D96119A342256018BF5960636808BF9B
:104F2000C8F8001062514B60304600F02FF804F1D1
:104F30000B00231D20F00700C21A1CBF1B1AA35030
:104F4000AFE76268A3420CBFC8F800205A60EBE7E5
:104F500023466468AEE73C467F68B6E71A465B685E
:104F6000A342FBD100235360DEE70C2333603046BD
:104F700000F00CF894E70560D6E700BFB0510020C0
:104F80000148FFF7F2BE00BFA85100200148FFF71B
:104F9000EDBE00BFA85100209368013B002B10B468
:104FA000936008DA9469A34201DB0A2903D15DF812
:104FB000044B00F06DBB1368581C10601970084654
:104FC0005DF8044B7047F8B506460F461446D518F1
:104FD000AC4201D1002007E014F8011B3A463046EC
:104FE000FFF7DAFF431CF3D1F8BD00002DE9F04FC5
:104FF0000D469DB014469846064618B1036A0BB993
:10500000FFF7B6FD6B6ED90705D4AB899A0502D4BC
:10501000A86DFFF7AAFEAB891B0701D52B699BB9C9
:105020002946304600F072FB70B16B6EDC0704D588
:105030004FF0FF301DB0BDE8F08FAB899805F7D475
:10504000A86DFFF793FEF3E70023099320238DF863
:105050002930CDF80C803023DFF8AC818DF82A3070
:105060004FF0010923469A4613F8012B0AB1252A6D
:10507000F9D1BAEB040B0BD05B46224629463046E9
:10508000FFF7A1FF013000F0A780099A5A44099266
:105090009AF80030002B00F09F8000234FF0FF3281
:1050A000CDE905230AF1010A049307938DF85330E3
:1050B0001A935446052214F8011B5348FBF710F9C4
:1050C000049AD8B9D10644BF20238DF85330130772
:1050D00044BF2B238DF853309AF800302A2B15D07B
:1050E000079A544600204FF00A0C214611F8013B64
:1050F000303B092B4BD9B0B1079214E0A0EB080369
:1051000009FA03F313430493A246D2E7039B191D44
:105110001B680391002BBBBF5B4242F00202079366
:105120000793B8BF049223782E2B0AD163782A2BD9
:1051300032D1039B1A1D1B68039243EAE3730234C6
:105140000593DFF8D4A0217803225046FBF7C8F876
:1051500038B1049BA0EB0A00402282401343013483
:10516000049314F8011B29488DF828100622FBF738
:10517000B7F800283FD0264B1BBB039B073323F017
:10518000070308330393099B3B4409936AE70CFB2D
:1051900002320C460120A8E700230134059319468A
:1051A0004FF00A0C204610F8012B303A092A03D997
:1051B000002BC6D00591C4E70CFB01210446012356
:1051C000F0E703AB00932A46124B04A93046AFF335
:1051D00000800746781CD6D16B6ED90705D4AB8901
:1051E0009A0502D4A86DFFF7C1FDAB895B063FF5B8
:1051F0001FAF09981EE703AB00932A46054B04A98D
:10520000304600F079F8E4E7405D00084A5D0008A8
:1052100000000000C74F0008465D00082DE9F04778
:10522000164698468A680B69DDF820909342B8BF0D
:105230001346336091F8432007460C460AB1013308
:1052400033602368990642BF3368023333602568B0
:1052500015F0060506D104F1190AE36832689B1AB5
:10526000AB4226DC94F843302268003B18BF012390
:1052700092062BD404F1430241463846C847013018
:105280001ED02368226903F00603042B02BFE568E1
:105290003368ED1AA3680CBF25EAE5750025934233
:1052A000C4BF9B1AED1800261A34B5421AD100204B
:1052B00008E00123524641463846C847013003D131
:1052C0004FF0FF30BDE8F0870135C6E7E1185A1C02
:1052D000302081F84300224494F8451082F84310AE
:1052E0000233C7E70123224641463846C84701300A
:1052F000E6D00136D9E700002DE9FF470F7E0C9E6E
:10530000782F914680460C469A4601F1430207D811
:10531000622F0AD8002F00F0D280582F00F0B980F9
:1053200004F1420684F842703AE0A7F16303152BBA
:10533000F6D801A151F823F091530008A5530008B5
:10534000215300082153000821530008215300086D
:10535000A5530008215300082153000821530008D9
:1053600021530008A5540008CF5300085F540008DB
:105370002153000821530008C75400082153000896
:10538000CF53000821530008215300086754000838
:1053900033681A1D1B68326004F1420684F84230FB
:1053A00001239DE033682068191D3160060601D590
:1053B0001D6803E04506FBD5B3F90050002D03DA64
:1053C0002D236D4284F8433059480A2311E02168A7
:1053D0003368080653F8045B02D4490648BFADB2EF
:1053E0006F2F5348336014BF0A230823002184F829
:1053F00043106668A660002EA2BF216821F0040158
:1054000021600DB9002E4BD01646B5FBF3F103FB1E
:105410001157C75D06F8017D2F46BB420D46F4D9F2
:10542000082B0BD12368DF0708D5236961689942EF
:10543000DEBF302306F8013C06F1FF36921B2261E5
:10544000CDF800A04B4603AA21464046FFF7E6FEF2
:1054500001304AD14FF0FF3004B0BDE8F087236837
:1054600043F0200323603348782784F8457023688D
:1054700031681F0651F8045B02D45F0648BFADB225
:105480003160D90744BF43F0200323601DB11023CE
:10549000ACE72748E9E7236823F020032360F6E719
:1054A0001646BDE7336825686169181D30602E0611
:1054B0001B6801D5196002E06806FBD5198000233E
:1054C00023611646BCE733681A1D32601E686268A5
:1054D00000213046FAF704FF08B1801B6060636862
:1054E0002361002384F84330AAE723693246494602
:1054F0004046D0470130ADD023689B0713D4E06805
:10550000039B9842B8BF1846A6E701233246494696
:105510004046D04701309DD00135E36803995B1ABE
:10552000AB42F2DCEBE7002504F11906F5E700BF1A
:10553000515D0008625D0008B1F90C202DE9F041D1
:10554000160705460C4654D44B68002B02DC0B6C46
:10555000002B48DDE66A002E45D0002312F480526D
:105560002F68216A2B6030D0626DA389590705D559
:105570006368D21A636B0BB1236CD21A0023E66AFC
:10558000216A2846B047431CA38906D129681D29F2
:105590002BD82A4A0A41D60727D400226260D904B0
:1055A0002269226004D5421C01D12B6803B96065D1
:1055B000616B2F60B9B104F14403994202D02846CF
:1055C000FFF7F2FB002363630DE001232846B04799
:1055D0000246501CC9D12B68002BC6D01D2B01D010
:1055E000162B1ED12F60002022E043F040031BB297
:1055F0001BE00F69002FF6D093070E6808BF4B69B8
:105600000F6018BF0023A6EB07088B60B8F1000FEE
:10561000E9DD216AA66A43463A462846B047002893
:1056200008DCB4F90C3043F04003A3814FF0FF30A5
:10563000BDE8F0810744A8EB0008E7E7FEFFBFDF05
:1056400038B50B6905460C4613B90025284638BD08
:1056500018B1036A0BB9FFF78BFAB4F90C30002BC1
:10566000F3D0626ED00704D4990502D4A06DFFF781
:105670007CFB28462146FFF75FFF636EDA0705468D
:10568000E4D4A3899B05E1D4A06DFFF76FFBDDE7B0
:10569000F8B50E461446054618B1036A0BB9FFF774
:1056A00067FAA369A360A3891A0701D5236943B9DF
:1056B0002146284600F02AF818B14FF0FF37384647
:1056C000F8BD23682269981A6369F6B283423746A7
:1056D00005DC21462846FFF7B3FF0028EDD1A3687B
:1056E000013BA36023685A1C22601E706269431C40
:1056F0009A4204D0A389DB07E1D50A2EDFD12146E7
:105700002846FFF79DFF0028D9D0D6E738B5294BAA
:10571000054618680C4618B1036A0BB9FFF728FA5A
:10572000B4F90C30190722D4DA0607D409222A600A
:1057300043F04003A3814FF0FF3033E0580712D508
:10574000616B41B104F14403994202D02846FFF74E
:105750002BFB00236363A38923F02403A38100238D
:10576000636023692360A38943F00803A38123694D
:105770004BB9A38903F42073B3F5007F03D021460E
:10578000284600F093F8B4F90C3013F001020AD067
:105790000022A26062695242A261226942B913F0FA
:1057A0008000C5D138BD990758BF6269A260F4E78F
:1057B0000020F7E72C0000201F2938B505460C46CD
:1057C00004D9162303604FF0FF3038BDC26B12B10D
:1057D00052F821304BB9284600F030F822460146F5
:1057E0002846BDE8384000F017B8012B0AD0591CF4
:1057F00003D1162303600120E7E7002142F82410BB
:10580000204698470020E0E7024B01461868FFF762
:10581000D3BF00BF2C00002038B5074D002304463D
:10582000084611462B6000F0BFF8431C02D12B68DC
:1058300003B1236038BD00BFA451002000F0A4B81C
:1058400038B5064D0023044608462B6000F0C4F826
:10585000431C02D12B6803B1236038BDA451002042
:1058600070B50C46B1F90E10002996B015461E46CB
:105870000DDAA38913F0800F4FF0000114BF40230D
:105880004FF48063002031602B6016B070BD6A4613
:1058900000F048F80028ECDB019901F47041A1F513
:1058A0000053594259414FF48063EBE78B89F7B5B8
:1058B0009D0706460C4607D504F147032360236184
:1058C0000123636103B0F0BD01AB6A46FFF7C8FF77
:1058D000009F054639463046FFF7D2FA48B9B4F979
:1058E0000C309A05EED423F0030343F00203A381A6
:1058F000E2E7A389206043F08003A381019BC4E910
:1059000004075BB1B4F90E10304600F01DF828B161
:10591000A38923F0030343F00103A381A3891D435B
:10592000A581CFE738B5074D002304460846114648
:105930002B6000F021F8431C02D12B6803B12360D7
:1059400038BD00BFA451002038B5064D00230446E1
:1059500008462B6000F020F8431C02D12B6803B1ED
:10596000236038BDA4510020024B58221A604FF02A
:10597000FF307047A4510020024B58221A604FF0AC
:10598000FF307047A4510020024B58221A604FF09C
:10599000FF307047A4510020024B58221A600020AB
:1059A000704700BFA4510020024B58221A604FF0EC
:1059B000FF307047A4510020024B58221A604FF06C
:1059C000FF307047A4510020024B58221A604FF05C
:1059D000FF307047A4510020044A1168034609B9FA
:1059E000034911601068034413607047B4510020EC
:1059F000B8510020FEE70000F8B500BFF8BC08BCB5
:105A00009E467047F8B500BFF8BC08BC9E4670477C
:105A1000417373657274696F6E204661696C656469
:105A20003A66696C652025732020202020202020E4
:105A30002020202020202020202020202020202066
:105A400020202020206F6E206C696E652025640D5B
:105A50000A002F686F6D652F636872697374616CDB
:105A60002F446F63756D656E74732F70726F672F3F
:105A700048616E64732D4F6E2D52544F532D7769CC
:105A800074682D4D6963726F636F6E74726F6C6CA6
:105A90006572732F447269766572732F53544D3358
:105AA00032463778785F48414C5F44726976657258
:105AB0002F5372632F73746D3332663778785F6853
:105AC000616C5F636F727465782E63002F686F6D11
:105AD000652F636872697374616C2F446F63756DB1
